:100000000C9434000C943E000C943E000C943E0082
:100010000C943E000C943E000C943E000C943E0068
:100020000C943E000C943E000C943E000C943E0058
:100030000C943E000C943E000C943E000C943E0048
:100040000C943E000C943E000C943E000C943E0038
:100050000C943E000C943E000C943E000C943E0028
:100060000C943E000C943E0011241FBECFEFD8E04C
:10007000DEBFCDBF0E9440000C9465000C940000D0
:1000800084B18E6084B922E094E088E025B93FE332
:100090004DE053E0315040405040E1F700C00000D7
:1000A00095B93FE34DE053E0315040405040E1F717
:1000B00000C0000085B93FE34DE053E031504040BF
:0E00C0005040E1F700C00000E1CFF894FFCF00
:00000001FF
